{
  "_format": "hh-sol-artifact-1",
  "contractName": "ContratoServicioAgropagos",
  "sourceName": "contracts/ContratoServicioAgropagos.sol",
  "abi": [
    {
      "inputs": [],
      "stateMutability": "nonpayable",
      "type": "constructor"
    },
    {
      "inputs": [
        {
          "internalType": "address",
          "name": "owner",
          "type": "address"
        }
      ],
      "name": "OwnableInvalidOwner",
      "type": "error"
    },
    {
      "inputs": [
        {
          "internalType": "address",
          "name": "account",
          "type": "address"
        }
      ],
      "name": "OwnableUnauthorizedAccount",
      "type": "error"
    },
    {
      "anonymous": false,
      "inputs": [
        {
          "indexed": true,
          "internalType": "address",
          "name": "previousOwner",
          "type": "address"
        },
        {
          "indexed": true,
          "internalType": "address",
          "name": "newOwner",
          "type": "address"
        }
      ],
      "name": "OwnershipTransferred",
      "type": "event"
    },
    {
      "inputs": [],
      "name": "cobrarServicio",
      "outputs": [],
      "stateMutability": "nonpayable",
      "type": "function"
    },
    {
      "inputs": [
        {
          "internalType": "string",
          "name": "_nombreServicio",
          "type": "string"
        },
        {
          "internalType": "uint256",
          "name": "_pagoPactado",
          "type": "uint256"
        },
        {
          "internalType": "address",
          "name": "_contratista",
          "type": "address"
        },
        {
          "internalType": "address",
          "name": "_usdtTokenAddress",
          "type": "address"
        }
      ],
      "name": "configurarContrato",
      "outputs": [],
      "stateMutability": "nonpayable",
      "type": "function"
    },
    {
      "inputs": [],
      "name": "contratista",
      "outputs": [
        {
          "internalType": "address",
          "name": "",
          "type": "address"
        }
      ],
      "stateMutability": "view",
      "type": "function"
    },
    {
      "inputs": [],
      "name": "contratoCompletado",
      "outputs": [
        {
          "internalType": "bool",
          "name": "",
          "type": "bool"
        }
      ],
      "stateMutability": "view",
      "type": "function"
    },
    {
      "inputs": [],
      "name": "contratoConfigurado",
      "outputs": [
        {
          "internalType": "bool",
          "name": "",
          "type": "bool"
        }
      ],
      "stateMutability": "view",
      "type": "function"
    },
    {
      "inputs": [],
      "name": "ejecutarPago",
      "outputs": [],
      "stateMutability": "nonpayable",
      "type": "function"
    },
    {
      "inputs": [],
      "name": "marcarServicioCompletado",
      "outputs": [],
      "stateMutability": "nonpayable",
      "type": "function"
    },
    {
      "inputs": [],
      "name": "nombreServicio",
      "outputs": [
        {
          "internalType": "string",
          "name": "",
          "type": "string"
        }
      ],
      "stateMutability": "view",
      "type": "function"
    },
    {
      "inputs": [],
      "name": "obtenerEstadoContrato",
      "outputs": [
        {
          "internalType": "bool",
          "name": "",
          "type": "bool"
        }
      ],
      "stateMutability": "view",
      "type": "function"
    },
    {
      "inputs": [],
      "name": "obtenerEstadoServicio",
      "outputs": [
        {
          "internalType": "bool",
          "name": "",
          "type": "bool"
        }
      ],
      "stateMutability": "view",
      "type": "function"
    },
    {
      "inputs": [],
      "name": "obtenerPagoPactado",
      "outputs": [
        {
          "internalType": "uint256",
          "name": "",
          "type": "uint256"
        }
      ],
      "stateMutability": "view",
      "type": "function"
    },
    {
      "inputs": [],
      "name": "owner",
      "outputs": [
        {
          "internalType": "address",
          "name": "",
          "type": "address"
        }
      ],
      "stateMutability": "view",
      "type": "function"
    },
    {
      "inputs": [],
      "name": "pagoPactado",
      "outputs": [
        {
          "internalType": "uint256",
          "name": "",
          "type": "uint256"
        }
      ],
      "stateMutability": "view",
      "type": "function"
    },
    {
      "inputs": [],
      "name": "renounceOwnership",
      "outputs": [],
      "stateMutability": "nonpayable",
      "type": "function"
    },
    {
      "inputs": [],
      "name": "servicioCompletado",
      "outputs": [
        {
          "internalType": "bool",
          "name": "",
          "type": "bool"
        }
      ],
      "stateMutability": "view",
      "type": "function"
    },
    {
      "inputs": [
        {
          "internalType": "contract ERC20",
          "name": "_usdtToken",
          "type": "address"
        }
      ],
      "name": "setUsdtToken",
      "outputs": [],
      "stateMutability": "nonpayable",
      "type": "function"
    },
    {
      "inputs": [
        {
          "internalType": "address",
          "name": "newOwner",
          "type": "address"
        }
      ],
      "name": "transferOwnership",
      "outputs": [],
      "stateMutability": "nonpayable",
      "type": "function"
    },
    {
      "inputs": [],
      "name": "usdtToken",
      "outputs": [
        {
          "internalType": "contract ERC20",
          "name": "",
          "type": "address"
        }
      ],
      "stateMutability": "view",
      "type": "function"
    }
  ],
  "bytecode": "0x60806040526000600360166101000a81548160ff02191690831515021790555034801561002b57600080fd5b5033600073ffffffffffffffffffffffffffffffffffffffff168173ffffffffffffffffffffffffffffffffffffffff160361009f5760006040517f1e4fbdf700000000000000000000000000000000000000000000000000000000815260040161009691906101ef565b60405180910390fd5b6100ae816100ea60201b60201c565b506000600360146101000a81548160ff0219169083151502179055506000600360156101000a81548160ff02191690831515021790555061020a565b60008060009054906101000a900473ffffffffffffffffffffffffffffffffffffffff169050816000806101000a81548173ffffffffffffffffffffffffffffffffffffffff021916908373ffffffffffffffffffffffffffffffffffffffff1602179055508173ffffffffffffffffffffffffffffffffffffffff168173ffffffffffffffffffffffffffffffffffffffff167f8be0079c531659141344cd1fd0a4f28419497f9722a3daafe3b4186f6b6457e060405160405180910390a35050565b600073ffffffffffffffffffffffffffffffffffffffff82169050919050565b60006101d9826101ae565b9050919050565b6101e9816101ce565b82525050565b600060208201905061020460008301846101e0565b92915050565b611f42806102196000396000f3fe608060405234801561001057600080fd5b50600436106101165760003560e01c8063a1c81731116100a2578063d7f3c66d11610071578063d7f3c66d14610263578063ee71cfa41461027f578063f2fde38b1461029d578063f6402760146102b9578063f6c7627b146102d757610116565b8063a1c81731146101ff578063a98ad46c14610209578063af25ec3014610227578063bbcfc02b1461024557610116565b80635370c7ee116100e95780635370c7ee14610191578063715018a6146101af57806372d1b134146101b9578063821a09f0146101c35780638da5cb5b146101e157610116565b8063044170481461011b5780631e8bcc981461013757806331320f97146101555780633e34d18c14610173575b600080fd5b610135600480360381019061013091906113b5565b6102e1565b005b61013f6103f3565b60405161014c9190611447565b60405180910390f35b61015d6103f9565b60405161016a91906114e1565b60405180910390f35b61017b610487565b604051610188919061151e565b60405180910390f35b61019961049e565b6040516101a69190611548565b60405180910390f35b6101b76104c4565b005b6101c16104d8565b005b6101cb61097e565b6040516101d89190611447565b60405180910390f35b6101e9610988565b6040516101f69190611548565b60405180910390f35b6102076109b1565b005b610211610dcf565b60405161021e91906115c2565b60405180910390f35b61022f610df5565b60405161023c919061151e565b60405180910390f35b61024d610e08565b60405161025a919061151e565b60405180910390f35b61027d6004803603810190610278919061161b565b610e1b565b005b610287610e67565b604051610294919061151e565b60405180910390f35b6102b760048036038101906102b29190611648565b610e7e565b005b6102c1610f04565b6040516102ce919061151e565b60405180910390f35b6102df610f17565b005b6102e9610f8b565b600360169054906101000a900460ff1615610339576040517f08c379a0000000000000000000000000000000000000000000000000000000008152600401610330906116e7565b60405180910390fd5b6001600360166101000a81548160ff02191690831515021790555083600190816103639190611909565b508260028190555081600360006101000a81548173ffffffffffffffffffffffffffffffffffffffff021916908373ffffffffffffffffffffffffffffffffffffffff16021790555080600460006101000a81548173ffffffffffffffffffffffffffffffffffffffff021916908373ffffffffffffffffffffffffffffffffffffffff16021790555050505050565b60025481565b6001805461040690611736565b80601f016020809104026020016040519081016040528092919081815260200182805461043290611736565b801561047f5780601f106104545761010080835404028352916020019161047f565b820191906000526020600020905b81548152906001019060200180831161046257829003601f168201915b505050505081565b6000600360159054906101000a900460ff16905090565b600360009054906101000a900473ffffffffffffffffffffffffffffffffffffffff1681565b6104cc610f8b565b6104d66000611012565b565b600360149054906101000a900460ff1661050e5761050d6040518060800160405280605b8152602001611e72605b91396110d6565b5b600360159054906101000a900460ff161561054557610544604051806060016040528060408152602001611ecd604091396110d6565b5b600360169054906101000a900460ff16610594576040517f08c379a000000000000000000000000000000000000000000000000000000000815260040161058b90611a4d565b60405180910390fd5b600360009054906101000a900473ffffffffffffffffffffffffffffffffffffffff1673ffffffffffffffffffffffffffffffffffffffff163373ffffffffffffffffffffffffffffffffffffffff1614610624576040517f08c379a000000000000000000000000000000000000000000000000000000000815260040161061b90611adf565b60405180910390fd5b600360149054906101000a900460ff16610673576040517f08c379a000000000000000000000000000000000000000000000000000000000815260040161066a90611b71565b60405180910390fd5b600360159054906101000a900460ff16156106c3576040517f08c379a00000000000000000000000000000000000000000000000000000000081526004016106ba90611c03565b60405180910390fd5b600254600460009054906101000a900473ffffffffffffffffffffffffffffffffffffffff1673ffffffffffffffffffffffffffffffffffffffff166370a0823161070c610988565b6040518263ffffffff1660e01b81526004016107289190611548565b602060405180830381865afa158015610745573d6000803e3d6000fd5b505050506040513d601f19601f820116820180604052508101906107699190611c38565b10156107aa576040517f08c379a00000000000000000000000000000000000000000000000000000000081526004016107a190611cd7565b60405180910390fd5b600254600460009054906101000a900473ffffffffffffffffffffffffffffffffffffffff1673ffffffffffffffffffffffffffffffffffffffff1663dd62ed3e6107f3610988565b306040518363ffffffff1660e01b8152600401610811929190611cf7565b602060405180830381865afa15801561082e573d6000803e3d6000fd5b505050506040513d601f19601f820116820180604052508101906108529190611c38565b1015610893576040517f08c379a000000000000000000000000000000000000000000000000000000000815260040161088a90611d92565b60405180910390fd5b600460009054906101000a900473ffffffffffffffffffffffffffffffffffffffff1673ffffffffffffffffffffffffffffffffffffffff166323b872dd6108d9610988565b600360009054906101000a900473ffffffffffffffffffffffffffffffffffffffff166002546040518463ffffffff1660e01b815260040161091d93929190611db2565b6020604051808303816000875af115801561093c573d6000803e3d6000fd5b505050506040513d601f19601f820116820180604052508101906109609190611e15565b506001600360156101000a81548160ff021916908315150217905550565b6000600254905090565b60008060009054906101000a900473ffffffffffffffffffffffffffffffffffffffff16905090565b6109b9610f8b565b600360149054906101000a900460ff166109ef576109ee6040518060800160405280605b8152602001611e72605b91396110d6565b5b600360159054906101000a900460ff1615610a2657610a25604051806060016040528060408152602001611ecd604091396110d6565b5b600360169054906101000a900460ff16610a75576040517f08c379a0000000000000000000000000000000000000000000000000000000008152600401610a6c90611a4d565b60405180910390fd5b600360149054906101000a900460ff16610ac4576040517f08c379a0000000000000000000000000000000000000000000000000000000008152600401610abb90611b71565b60405180910390fd5b600360159054906101000a900460ff1615610b14576040517f08c379a0000000000000000000000000000000000000000000000000000000008152600401610b0b90611c03565b60405180910390fd5b600254600460009054906101000a900473ffffffffffffffffffffffffffffffffffffffff1673ffffffffffffffffffffffffffffffffffffffff166370a08231610b5d610988565b6040518263ffffffff1660e01b8152600401610b799190611548565b602060405180830381865afa158015610b96573d6000803e3d6000fd5b505050506040513d601f19601f82011682018060405250810190610bba9190611c38565b1015610bfb576040517f08c379a0000000000000000000000000000000000000000000000000000000008152600401610bf290611cd7565b60405180910390fd5b600254600460009054906101000a900473ffffffffffffffffffffffffffffffffffffffff1673ffffffffffffffffffffffffffffffffffffffff1663dd62ed3e610c44610988565b306040518363ffffffff1660e01b8152600401610c62929190611cf7565b602060405180830381865afa158015610c7f573d6000803e3d6000fd5b505050506040513d601f19601f82011682018060405250810190610ca39190611c38565b1015610ce4576040517f08c379a0000000000000000000000000000000000000000000000000000000008152600401610cdb90611d92565b60405180910390fd5b600460009054906101000a900473ffffffffffffffffffffffffffffffffffffffff1673ffffffffffffffffffffffffffffffffffffffff166323b872dd610d2a610988565b600360009054906101000a900473ffffffffffffffffffffffffffffffffffffffff166002546040518463ffffffff1660e01b8152600401610d6e93929190611db2565b6020604051808303816000875af1158015610d8d573d6000803e3d6000fd5b505050506040513d601f19601f82011682018060405250810190610db19190611e15565b506001600360156101000a81548160ff021916908315150217905550565b600460009054906101000a900473ffffffffffffffffffffffffffffffffffffffff1681565b600360149054906101000a900460ff1681565b600360159054906101000a900460ff1681565b610e23610f8b565b80600460006101000a81548173ffffffffffffffffffffffffffffffffffffffff021916908373ffffffffffffffffffffffffffffffffffffffff16021790555050565b6000600360149054906101000a900460ff16905090565b610e86610f8b565b600073ffffffffffffffffffffffffffffffffffffffff168173ffffffffffffffffffffffffffffffffffffffff1603610ef85760006040517f1e4fbdf7000000000000000000000000000000000000000000000000000000008152600401610eef9190611548565b60405180910390fd5b610f0181611012565b50565b600360169054906101000a900460ff1681565b610f1f610f8b565b600360169054906101000a900460ff16610f6e576040517f08c379a0000000000000000000000000000000000000000000000000000000008152600401610f6590611a4d565b60405180910390fd5b6001600360146101000a81548160ff021916908315150217905550565b610f9361116f565b73ffffffffffffffffffffffffffffffffffffffff16610fb1610988565b73ffffffffffffffffffffffffffffffffffffffff161461101057610fd461116f565b6040517f118cdaa70000000000000000000000000000000000000000000000000000000081526004016110079190611548565b60405180910390fd5b565b60008060009054906101000a900473ffffffffffffffffffffffffffffffffffffffff169050816000806101000a81548173ffffffffffffffffffffffffffffffffffffffff021916908373ffffffffffffffffffffffffffffffffffffffff1602179055508173ffffffffffffffffffffffffffffffffffffffff168173ffffffffffffffffffffffffffffffffffffffff167f8be0079c531659141344cd1fd0a4f28419497f9722a3daafe3b4186f6b6457e060405160405180910390a35050565b61116c816040516024016110ea91906114e1565b6040516020818303038152906040527f41304fac000000000000000000000000000000000000000000000000000000007bffffffffffffffffffffffffffffffffffffffffffffffffffffffff19166020820180517bffffffffffffffffffffffffffffffffffffffffffffffffffffffff8381831617835250505050611177565b50565b600033905090565b61118e816111866111916111b2565b63ffffffff16565b50565b60006a636f6e736f6c652e6c6f679050600080835160208501845afa505050565b6111bd819050919050565b6111c5611e42565b565b6000604051905090565b600080fd5b600080fd5b600080fd5b600080fd5b6000601f19601f8301169050919050565b7f4e487b7100000000000000000000000000000000000000000000000000000000600052604160045260246000fd5b61122e826111e5565b810181811067ffffffffffffffff8211171561124d5761124c6111f6565b5b80604052505050565b60006112606111c7565b905061126c8282611225565b919050565b600067ffffffffffffffff82111561128c5761128b6111f6565b5b611295826111e5565b9050602081019050919050565b82818337600083830152505050565b60006112c46112bf84611271565b611256565b9050828152602081018484840111156112e0576112df6111e0565b5b6112eb8482856112a2565b509392505050565b600082601f830112611308576113076111db565b5b81356113188482602086016112b1565b91505092915050565b6000819050919050565b61133481611321565b811461133f57600080fd5b50565b6000813590506113518161132b565b92915050565b600073ffffffffffffffffffffffffffffffffffffffff82169050919050565b600061138282611357565b9050919050565b61139281611377565b811461139d57600080fd5b50565b6000813590506113af81611389565b92915050565b600080600080608085870312156113cf576113ce6111d1565b5b600085013567ffffffffffffffff8111156113ed576113ec6111d6565b5b6113f9878288016112f3565b945050602061140a87828801611342565b935050604061141b878288016113a0565b925050606061142c878288016113a0565b91505092959194509250565b61144181611321565b82525050565b600060208201905061145c6000830184611438565b92915050565b600081519050919050565b600082825260208201905092915050565b60005b8381101561149c578082015181840152602081019050611481565b60008484015250505050565b60006114b382611462565b6114bd818561146d565b93506114cd81856020860161147e565b6114d6816111e5565b840191505092915050565b600060208201905081810360008301526114fb81846114a8565b905092915050565b60008115159050919050565b61151881611503565b82525050565b6000602082019050611533600083018461150f565b92915050565b61154281611377565b82525050565b600060208201905061155d6000830184611539565b92915050565b6000819050919050565b600061158861158361157e84611357565b611563565b611357565b9050919050565b600061159a8261156d565b9050919050565b60006115ac8261158f565b9050919050565b6115bc816115a1565b82525050565b60006020820190506115d760008301846115b3565b92915050565b60006115e882611377565b9050919050565b6115f8816115dd565b811461160357600080fd5b50565b600081359050611615816115ef565b92915050565b600060208284031215611631576116306111d1565b5b600061163f84828501611606565b91505092915050565b60006020828403121561165e5761165d6111d1565b5b600061166c848285016113a0565b91505092915050565b7f456c20736572766963696f207961206861207369646f20636f6e66696775726160008201527f646f212c206e6f207075656465207265636f6e66696775726172210000000000602082015250565b60006116d1603b8361146d565b91506116dc82611675565b604082019050919050565b60006020820190508181036000830152611700816116c4565b9050919050565b7f4e487b7100000000000000000000000000000000000000000000000000000000600052602260045260246000fd5b6000600282049050600182168061174e57607f821691505b60208210810361176157611760611707565b5b50919050565b60008190508160005260206000209050919050565b60006020601f8301049050919050565b600082821b905092915050565b6000600883026117c97fffffffffffffffffffffffffffffffffffffffffffffffffffffffffffffffff8261178c565b6117d3868361178c565b95508019841693508086168417925050509392505050565b60006118066118016117fc84611321565b611563565b611321565b9050919050565b6000819050919050565b611820836117eb565b61183461182c8261180d565b848454611799565b825550505050565b600090565b61184961183c565b611854818484611817565b505050565b5b818110156118785761186d600082611841565b60018101905061185a565b5050565b601f8211156118bd5761188e81611767565b6118978461177c565b810160208510156118a6578190505b6118ba6118b28561177c565b830182611859565b50505b505050565b600082821c905092915050565b60006118e0600019846008026118c2565b1980831691505092915050565b60006118f983836118cf565b9150826002028217905092915050565b61191282611462565b67ffffffffffffffff81111561192b5761192a6111f6565b5b6119358254611736565b61194082828561187c565b600060209050601f8311600181146119735760008415611961578287015190505b61196b85826118ed565b8655506119d3565b601f19841661198186611767565b60005b828110156119a957848901518255600182019150602085019450602081019050611984565b868310156119c657848901516119c2601f8916826118cf565b8355505b6001600288020188555050505b505050505050565b7f456c20736572766963696f206e6f206861207369646f20636f6e66696775726160008201527f646f000000000000000000000000000000000000000000000000000000000000602082015250565b6000611a3760228361146d565b9150611a42826119db565b604082019050919050565b60006020820190508181036000830152611a6681611a2a565b9050919050565b7f536f6c6f20656c20636f6e747261746973746120707565646520656a6563757460008201527f617220657374612066756e63696f6e0000000000000000000000000000000000602082015250565b6000611ac9602f8361146d565b9150611ad482611a6d565b604082019050919050565b60006020820190508181036000830152611af881611abc565b9050919050565b7f456c20736572766963696f206e6f206861207369646f206d61726361646f206360008201527f6f6d6f20636f6d706c657461646f000000000000000000000000000000000000602082015250565b6000611b5b602e8361146d565b9150611b6682611aff565b604082019050919050565b60006020820190508181036000830152611b8a81611b4e565b9050919050565b7f456c20636f6e747261746f207961206861207369646f20636f6d706c6574616460008201527f6f00000000000000000000000000000000000000000000000000000000000000602082015250565b6000611bed60218361146d565b9150611bf882611b91565b604082019050919050565b60006020820190508181036000830152611c1c81611be0565b9050919050565b600081519050611c328161132b565b92915050565b600060208284031215611c4e57611c4d6111d1565b5b6000611c5c84828501611c23565b91505092915050565b7f53616c646f20696e737566696369656e746520656e20656c20636f6e7472617460008201527f616e746500000000000000000000000000000000000000000000000000000000602082015250565b6000611cc160248361146d565b9150611ccc82611c65565b604082019050919050565b60006020820190508181036000830152611cf081611cb4565b9050919050565b6000604082019050611d0c6000830185611539565b611d196020830184611539565b9392505050565b7f456c20636f6e747261746f206e6f207469656e6520616c6c6f77616e6365207360008201527f7566696369656e74650000000000000000000000000000000000000000000000602082015250565b6000611d7c60298361146d565b9150611d8782611d20565b604082019050919050565b60006020820190508181036000830152611dab81611d6f565b9050919050565b6000606082019050611dc76000830186611539565b611dd46020830185611539565b611de16040830184611438565b949350505050565b611df281611503565b8114611dfd57600080fd5b50565b600081519050611e0f81611de9565b92915050565b600060208284031215611e2b57611e2a6111d1565b5b6000611e3984828501611e00565b91505092915050565b7f4e487b7100000000000000000000000000000000000000000000000000000000600052605160045260246000fdfe2d2d2d2d2d2d2d2d2d3e20456c20736572766963696f206e6f206861207369646f20636f6d706c657461646f212c206d617271756520636f6d706c65746172206f20736f6c69636974656c6f20616c20636f6e74726174616e74652d2d2d2d2d2d2d2d2d3e20456c20636f6e747261746f207961206861207369646f20636f6d706c657461646f2c206e6f20707565646520636f627261726c6f21a264697066735822122097c5e8ae81940217a375e0deac9e79280318605f049f3077ef9903f60d2cf3fc64736f6c634300081b0033",
  "linkReferences": {},
  "deployedLinkReferences": {}
}