{
  "_format": "hh-sol-artifact-1",
  "contractName": "ContratoServicioSimple",
  "sourceName": "contracts/ContratoServicioSimple.sol",
  "abi": [
    {
      "inputs": [
        {
          "internalType": "uint256",
          "name": "_pagoPactado",
          "type": "uint256"
        },
        {
          "internalType": "address",
          "name": "_contratista",
          "type": "address"
        },
        {
          "internalType": "address",
          "name": "_usdtTokenAddress",
          "type": "address"
        }
      ],
      "stateMutability": "nonpayable",
      "type": "constructor"
    },
    {
      "inputs": [
        {
          "internalType": "address",
          "name": "owner",
          "type": "address"
        }
      ],
      "name": "OwnableInvalidOwner",
      "type": "error"
    },
    {
      "inputs": [
        {
          "internalType": "address",
          "name": "account",
          "type": "address"
        }
      ],
      "name": "OwnableUnauthorizedAccount",
      "type": "error"
    },
    {
      "anonymous": false,
      "inputs": [
        {
          "indexed": true,
          "internalType": "address",
          "name": "previousOwner",
          "type": "address"
        },
        {
          "indexed": true,
          "internalType": "address",
          "name": "newOwner",
          "type": "address"
        }
      ],
      "name": "OwnershipTransferred",
      "type": "event"
    },
    {
      "inputs": [],
      "name": "cobrarServicio",
      "outputs": [],
      "stateMutability": "nonpayable",
      "type": "function"
    },
    {
      "inputs": [],
      "name": "contratista",
      "outputs": [
        {
          "internalType": "address",
          "name": "",
          "type": "address"
        }
      ],
      "stateMutability": "view",
      "type": "function"
    },
    {
      "inputs": [],
      "name": "contratoCompletado",
      "outputs": [
        {
          "internalType": "bool",
          "name": "",
          "type": "bool"
        }
      ],
      "stateMutability": "view",
      "type": "function"
    },
    {
      "inputs": [],
      "name": "ejecutarPago",
      "outputs": [],
      "stateMutability": "nonpayable",
      "type": "function"
    },
    {
      "inputs": [],
      "name": "owner",
      "outputs": [
        {
          "internalType": "address",
          "name": "",
          "type": "address"
        }
      ],
      "stateMutability": "view",
      "type": "function"
    },
    {
      "inputs": [],
      "name": "pagoPactado",
      "outputs": [
        {
          "internalType": "uint256",
          "name": "",
          "type": "uint256"
        }
      ],
      "stateMutability": "view",
      "type": "function"
    },
    {
      "inputs": [],
      "name": "renounceOwnership",
      "outputs": [],
      "stateMutability": "nonpayable",
      "type": "function"
    },
    {
      "inputs": [
        {
          "internalType": "address",
          "name": "newOwner",
          "type": "address"
        }
      ],
      "name": "transferOwnership",
      "outputs": [],
      "stateMutability": "nonpayable",
      "type": "function"
    },
    {
      "inputs": [],
      "name": "usdtToken",
      "outputs": [
        {
          "internalType": "contract ERC20",
          "name": "",
          "type": "address"
        }
      ],
      "stateMutability": "view",
      "type": "function"
    }
  ],
  "bytecode": "0x608060405234801561001057600080fd5b50604051611314380380611314833981810160405281019061003291906102be565b33600073ffffffffffffffffffffffffffffffffffffffff168173ffffffffffffffffffffffffffffffffffffffff16036100a55760006040517f1e4fbdf700000000000000000000000000000000000000000000000000000000815260040161009c9190610320565b60405180910390fd5b6100b48161016160201b60201c565b508260018190555081600260006101000a81548173ffffffffffffffffffffffffffffffffffffffff021916908373ffffffffffffffffffffffffffffffffffffffff1602179055506000600260146101000a81548160ff02191690831515021790555080600360006101000a81548173ffffffffffffffffffffffffffffffffffffffff021916908373ffffffffffffffffffffffffffffffffffffffff16021790555050505061033b565b60008060009054906101000a900473ffffffffffffffffffffffffffffffffffffffff169050816000806101000a81548173ffffffffffffffffffffffffffffffffffffffff021916908373ffffffffffffffffffffffffffffffffffffffff1602179055508173ffffffffffffffffffffffffffffffffffffffff168173ffffffffffffffffffffffffffffffffffffffff167f8be0079c531659141344cd1fd0a4f28419497f9722a3daafe3b4186f6b6457e060405160405180910390a35050565b600080fd5b6000819050919050565b61023d8161022a565b811461024857600080fd5b50565b60008151905061025a81610234565b92915050565b600073ffffffffffffffffffffffffffffffffffffffff82169050919050565b600061028b82610260565b9050919050565b61029b81610280565b81146102a657600080fd5b50565b6000815190506102b881610292565b92915050565b6000806000606084860312156102d7576102d6610225565b5b60006102e58682870161024b565b93505060206102f6868287016102a9565b9250506040610307868287016102a9565b9150509250925092565b61031a81610280565b82525050565b60006020820190506103356000830184610311565b92915050565b610fca8061034a6000396000f3fe608060405234801561001057600080fd5b50600436106100935760003560e01c80638da5cb5b116100665780638da5cb5b146100e8578063a1c8173114610106578063a98ad46c14610110578063bbcfc02b1461012e578063f2fde38b1461014c57610093565b80631e8bcc98146100985780635370c7ee146100b6578063715018a6146100d457806372d1b134146100de575b600080fd5b6100a0610168565b6040516100ad9190610aaa565b60405180910390f35b6100be61016e565b6040516100cb9190610b06565b60405180910390f35b6100dc610194565b005b6100e66101a8565b005b6100f0610543565b6040516100fd9190610b06565b60405180910390f35b61010e61056c565b005b61011861087f565b6040516101259190610b80565b60405180910390f35b6101366108a5565b6040516101439190610bb6565b60405180910390f35b61016660048036038101906101619190610c02565b6108b8565b005b60015481565b600260009054906101000a900473ffffffffffffffffffffffffffffffffffffffff1681565b61019c61093e565b6101a660006109c5565b565b600260009054906101000a900473ffffffffffffffffffffffffffffffffffffffff1673ffffffffffffffffffffffffffffffffffffffff163373ffffffffffffffffffffffffffffffffffffffff1614610238576040517f08c379a000000000000000000000000000000000000000000000000000000000815260040161022f90610c8c565b60405180910390fd5b600260149054906101000a900460ff1615610288576040517f08c379a000000000000000000000000000000000000000000000000000000000815260040161027f90610cf8565b60405180910390fd5b600154600360009054906101000a900473ffffffffffffffffffffffffffffffffffffffff1673ffffffffffffffffffffffffffffffffffffffff166370a082316102d1610543565b6040518263ffffffff1660e01b81526004016102ed9190610b06565b602060405180830381865afa15801561030a573d6000803e3d6000fd5b505050506040513d601f19601f8201168201806040525081019061032e9190610d44565b101561036f576040517f08c379a000000000000000000000000000000000000000000000000000000000815260040161036690610dbd565b60405180910390fd5b600154600360009054906101000a900473ffffffffffffffffffffffffffffffffffffffff1673ffffffffffffffffffffffffffffffffffffffff1663dd62ed3e6103b8610543565b306040518363ffffffff1660e01b81526004016103d6929190610ddd565b602060405180830381865afa1580156103f3573d6000803e3d6000fd5b505050506040513d601f19601f820116820180604052508101906104179190610d44565b1015610458576040517f08c379a000000000000000000000000000000000000000000000000000000000815260040161044f90610e78565b60405180910390fd5b600360009054906101000a900473ffffffffffffffffffffffffffffffffffffffff1673ffffffffffffffffffffffffffffffffffffffff166323b872dd61049e610543565b600260009054906101000a900473ffffffffffffffffffffffffffffffffffffffff166001546040518463ffffffff1660e01b81526004016104e293929190610e98565b6020604051808303816000875af1158015610501573d6000803e3d6000fd5b505050506040513d601f19601f820116820180604052508101906105259190610efb565b506001600260146101000a81548160ff021916908315150217905550565b60008060009054906101000a900473ffffffffffffffffffffffffffffffffffffffff16905090565b61057461093e565b600260149054906101000a900460ff16156105c4576040517f08c379a00000000000000000000000000000000000000000000000000000000081526004016105bb90610cf8565b60405180910390fd5b600154600360009054906101000a900473ffffffffffffffffffffffffffffffffffffffff1673ffffffffffffffffffffffffffffffffffffffff166370a0823161060d610543565b6040518263ffffffff1660e01b81526004016106299190610b06565b602060405180830381865afa158015610646573d6000803e3d6000fd5b505050506040513d601f19601f8201168201806040525081019061066a9190610d44565b10156106ab576040517f08c379a00000000000000000000000000000000000000000000000000000000081526004016106a290610f74565b60405180910390fd5b600154600360009054906101000a900473ffffffffffffffffffffffffffffffffffffffff1673ffffffffffffffffffffffffffffffffffffffff1663dd62ed3e6106f4610543565b306040518363ffffffff1660e01b8152600401610712929190610ddd565b602060405180830381865afa15801561072f573d6000803e3d6000fd5b505050506040513d601f19601f820116820180604052508101906107539190610d44565b1015610794576040517f08c379a000000000000000000000000000000000000000000000000000000000815260040161078b90610dbd565b60405180910390fd5b600360009054906101000a900473ffffffffffffffffffffffffffffffffffffffff1673ffffffffffffffffffffffffffffffffffffffff166323b872dd6107da610543565b600260009054906101000a900473ffffffffffffffffffffffffffffffffffffffff166001546040518463ffffffff1660e01b815260040161081e93929190610e98565b6020604051808303816000875af115801561083d573d6000803e3d6000fd5b505050506040513d601f19601f820116820180604052508101906108619190610efb565b506001600260146101000a81548160ff021916908315150217905550565b600360009054906101000a900473ffffffffffffffffffffffffffffffffffffffff1681565b600260149054906101000a900460ff1681565b6108c061093e565b600073ffffffffffffffffffffffffffffffffffffffff168173ffffffffffffffffffffffffffffffffffffffff16036109325760006040517f1e4fbdf70000000000000000000000000000000000000000000000000000000081526004016109299190610b06565b60405180910390fd5b61093b816109c5565b50565b610946610a89565b73ffffffffffffffffffffffffffffffffffffffff16610964610543565b73ffffffffffffffffffffffffffffffffffffffff16146109c357610987610a89565b6040517f118cdaa70000000000000000000000000000000000000000000000000000000081526004016109ba9190610b06565b60405180910390fd5b565b60008060009054906101000a900473ffffffffffffffffffffffffffffffffffffffff169050816000806101000a81548173ffffffffffffffffffffffffffffffffffffffff021916908373ffffffffffffffffffffffffffffffffffffffff1602179055508173ffffffffffffffffffffffffffffffffffffffff168173ffffffffffffffffffffffffffffffffffffffff167f8be0079c531659141344cd1fd0a4f28419497f9722a3daafe3b4186f6b6457e060405160405180910390a35050565b600033905090565b6000819050919050565b610aa481610a91565b82525050565b6000602082019050610abf6000830184610a9b565b92915050565b600073ffffffffffffffffffffffffffffffffffffffff82169050919050565b6000610af082610ac5565b9050919050565b610b0081610ae5565b82525050565b6000602082019050610b1b6000830184610af7565b92915050565b6000819050919050565b6000610b46610b41610b3c84610ac5565b610b21565b610ac5565b9050919050565b6000610b5882610b2b565b9050919050565b6000610b6a82610b4d565b9050919050565b610b7a81610b5f565b82525050565b6000602082019050610b956000830184610b71565b92915050565b60008115159050919050565b610bb081610b9b565b82525050565b6000602082019050610bcb6000830184610ba7565b92915050565b600080fd5b610bdf81610ae5565b8114610bea57600080fd5b50565b600081359050610bfc81610bd6565b92915050565b600060208284031215610c1857610c17610bd1565b5b6000610c2684828501610bed565b91505092915050565b600082825260208201905092915050565b7f3400000000000000000000000000000000000000000000000000000000000000600082015250565b6000610c76600183610c2f565b9150610c8182610c40565b602082019050919050565b60006020820190508181036000830152610ca581610c69565b9050919050565b7f3100000000000000000000000000000000000000000000000000000000000000600082015250565b6000610ce2600183610c2f565b9150610ced82610cac565b602082019050919050565b60006020820190508181036000830152610d1181610cd5565b9050919050565b610d2181610a91565b8114610d2c57600080fd5b50565b600081519050610d3e81610d18565b92915050565b600060208284031215610d5a57610d59610bd1565b5b6000610d6884828501610d2f565b91505092915050565b7f3300000000000000000000000000000000000000000000000000000000000000600082015250565b6000610da7600183610c2f565b9150610db282610d71565b602082019050919050565b60006020820190508181036000830152610dd681610d9a565b9050919050565b6000604082019050610df26000830185610af7565b610dff6020830184610af7565b9392505050565b7f456c20636f6e747261746f206e6f207469656e6520616c6c6f77616e6365207360008201527f7566696369656e74650000000000000000000000000000000000000000000000602082015250565b6000610e62602983610c2f565b9150610e6d82610e06565b604082019050919050565b60006020820190508181036000830152610e9181610e55565b9050919050565b6000606082019050610ead6000830186610af7565b610eba6020830185610af7565b610ec76040830184610a9b565b949350505050565b610ed881610b9b565b8114610ee357600080fd5b50565b600081519050610ef581610ecf565b92915050565b600060208284031215610f1157610f10610bd1565b5b6000610f1f84828501610ee6565b91505092915050565b7f3200000000000000000000000000000000000000000000000000000000000000600082015250565b6000610f5e600183610c2f565b9150610f6982610f28565b602082019050919050565b60006020820190508181036000830152610f8d81610f51565b905091905056fea264697066735822122094eb065af76064dd151080b150785977ba87d3b6cdfe19d0cf616a669f280d9464736f6c634300081b0033",
  "linkReferences": {},
  "deployedLinkReferences": {}
}